:020000040000FA
:0418000012EF13F0E0
:08180800056ED8CF06F0E0CF19
:1018100007F00001E9CF0DF0EACF08F0E1CF09F0C1
:10182000E2CF0AF0D9CF0BF0DACF0CF0F3CF14F0FF
:10183000F4CF15F0FACF16F000C00FF001C010F091
:1018400002C011F003C012F004C013F0A0AA2CEFE4
:101850000CF0A1BAC9EF12F00FC000F010C001F0F7
:1018600011C002F012C003F013C004F00E8E0DC0C0
:10187000E9FF08C0EAFF09C0E1FF0AC0E2FF0BC0B0
:10188000D9FF0CC0DAFF14C0F3FF15C0F4FF16C077
:10189000FAFF055007C0E0FF06C0D8FF1000F76A46
:1018A000AE0FF66E180EF7220900F5501200040371
:1018B0000100000000000000000000000000F76AC6
:1018C000CE0FF66E180EF7220900F5501200040034
:1018D0000100000000000000000000000000F76AA6
:1018E000EE0FF66E180EF7220900F55012004000B8
:1018F00008004000000000000000000000000000A0
:101900000000000000000000000000000000F76A76
:101910001E0FF66E190EF7220900F5501200400056
:101920000000400000000000000000000000000077
:101930000000000000000000000000000000F76A46
:101940004E0FF66E190EF7220900F550120009022B
:101950004300020100C0320904000001020201003C
:1019600005240010010424020205240600010524B8
:10197000010001070581030800FA09040100020AB9
:10198000000000070502024000FA0705820240003D
:10199000FA00F76AA20FF66E190EF7220900F55049
:1019A00012000200F76AB40FF66E190EF722090052
:1019B000F5501200120110010200004061043300D2
:1019C000000101020001F76AD60FF66E190EF72228
:1019D0000900F55012000403090408034300430002
:1019E00053001E03430043005300200052005300E5
:1019F0003200330032002000440065006D006F00AB
:101A00006D9269946894D4EF12F06A6A6892DDEF7F
:101A100012F02C6A2B6A250E2A6E800E296E2D6A12
:101A20002E6A080E2F6E7F6B7A93316A306A7B6B59
:101A30007C917A812BEF0DF08A6B8A5101080AE3C1
:101A4000036A8A51270FE96E000E0320EA6EEF6ADF
:101A50008A2BF3D7DED7196A010E1A6E186A5EEF69
:101A60000DF0010E936F93510F080EE3700E932546
:101A7000016E0F0E036ED8B0032A01C0E9FF03C048
:101A8000EAFFEF6A932BEFD71D6A1C6A000C400E29
:101A90000401016F050E036F026B880E006F046B6B
:101AA000050E076F400E066F0001000C6A6A686A37
:101AB0009F0E6B6E390E696E6E6ABED7D2DF160E40
:101AC000706E68A602D06896FCD76D98E0DF030EB2
:101AD0001E6EE3EF12F0698468986D82E9EF12F0F0
:101AE000689CEFEF12F070A002D0D1DF7090689A7E
:101AF000F5EF12F08EC01FF0000CFF0E1F6E000CF1
:101B00008C6B265235E08C513F0832E31B5005E0C8
:101B1000020A0DE0010A15E01ED0036A2450F2CF3C
:101B20008EF0F29E0CDF8EBFF28E8D6F14D0036AA2
:101B30002450F2CF8EF0F29E46DF8EBFF28E8D6F74
:101B40000AD0036A2450F2CF8EF0F29E2BDF8EBFB4
:101B5000F28E8D6F00D0242A26068C518C2B036ABE
:101B6000400FE96E050E0320EA6E8DC0EFFFC9D766
:101B7000265204E18C51400801E0186A8CC08EF0B6
:101B8000B9DF000C246A1B6A05010351010A000138
:101B900005E0030A08E0010A09E01FD0120E266ED4
:101BA000030E1B6E1CD0430E266E19D0020E1B6E48
:101BB000036A05010251200FE96E000E0320EA6E50
:101BC000EFCF24F0036A2450F2CF8BF0F29E000195
:101BD000FADE8BBFF28E266E02D08FDF0CD00501AD
:101BE000075305E12650065D02E206C526F0010E08
:101BF000186E000185DF15EF0FF08B5304E1040E22
:101C00001E6E2FDFC1D0050E1E6E8E6F800E8D6F83
:101C1000010E8C6F8C510F08D8A0B6D08F6B036A61
:101C20008C51F2CF93F0F29E4ADE93BFF28E000AFF
:101C300051E0040E8F6FD8908C35036AF2CF93F089
:101C4000F29E65DE0900F5CF03F093BFF28E906F30
:101C500003C091F08C51080DF350010F016E040E7A
:101C6000036ED8B0032A01C0E9FF03C0EAFF90C0A9
:101C7000EFFF8C51080DF350020F016E040E036E3E
:101C8000D8B0032A01C0E9FF03C0EAFF8EC0ECFF11
:101C9000ED528DC0EFFFD8908C35036AF2CF93F0F0
:101CA000F29E35DE0900F5CF03F093BFF28E8D274B
:101CB00003508E23880E926F91B1928191B39283DB
:101CC0008C51080DF3CF01F0040E01C0E9FFEA6E5C
:101CD00092C0EFFF036A8C51F2CF93F0F29EDFDDEA
:101CE00093BFF28E000A31E08F838C51080DF350C0
:101CF000060F016E040E036ED8B0032A01C0E9FF7F
:101D000003C0EAFF8EC0ECFFED528DC0EFFFD8900C
:101D10008C35036AF2CF93F0F29EE1DD0900F5CF36
:101D200003F093BFF28E8D2703508E238C51080D44
:101D3000F350040F016E040E036ED8B0032A01C0E5
:101D4000E9FF03C0EAFF400EEF6E8F51060802E183
:101D50000E0E8F6F036A8C51F2CF93F0F29E9FDDCF
:101D600093BFF28E020801E08F89700E8C25016E00
:101D70000F0E036ED8B0032A01C0E9FF03C0EAFFCB
:101D80008FC0EFFF8C2B46D70FEF0FF005010151ED
:101D900000010DE0010A14E0020A1EE0060A27E035
:101DA000030A2CE00E0A2BE0010A2FE03CD01AC0F7
:101DB00040F50501416B020E00018E6F9BDE35D0B0
:101DC0000501022D06D0010E1A1600018E6B92DE5F
:101DD00002D0000192DE29D00501022D05D01A8221
:101DE00000018E6B87DE02D0000187DE1ED0020E5E
:101DF000186E02C523F08E6B7DDE17D0C3D619C0D6
:101E000040F5010E8E6F76DE10D0050102510108FB
:101E100008E302C519F002C58BF00001EED68E6B07
:101E200069DE000102D069DE00D08DEF10F019C02C
:101E30008BF005010151000105E00A0A0BE0010ADF
:101E40002BE03CD00501406B416B020E00018E6F10
:101E500051DE36D08B531EE0010E8B5D036AF2CF4C
:101E60008DF0F29E96DD8DBFF28E016E0501045D50
:101E7000D8A002D000010ED0036A0451270FE96EEA
:101E8000000E0320EA6EEFCF40F5010E00018E6FC9
:101E900031DE01D032DE14D08B530EE0036A05012F
:101EA0000451270FE96E000E0320EA6E02C5EFFF12
:101EB00000018E6B1FDE01D020DE02D01EDE00D0BE
:101EC0008DEF10F08C918BBF8C818B9F8CA110D0EB
:101ED000036A8B51F2CF8DF0F29EE1DC8DBFF28E62
:101EE000000A02E1000E01D0010E016E10D00FD0E9
:101EF000036A8B51F2CF8DF0F29EE1DC8DBFF28E42
:101F0000000A02E1000E01D0010E016E00D0F9EFCF
:101F10000FF08C918BBF8C818B9F8CA110D08B513B
:101F2000080DF350040F016E040E036ED8B0032A9F
:101F300001C0E9FF03C0EAFF880EEF6E09D08B51A4
:101F4000080DF3CF01F0040E01C0E9FFEA6EEF6A5D
:101F500008EF10F08C918BBF8C818B9F8CA110D0DF
:101F60008B51080DF350040F016E040E036ED8B0B0
:101F7000032A01C0E9FF03C0EAFF840EEF6E0AD016
:101F80008B51080DF3CF01F0040E01C0E9FFEA6E9A
:101F9000840EEF6E0EEF10F08C918BBF8C818B9FB7
:101FA0008CA110D08B51080DF350040F016E040E5C
:101FB000036ED8B0032A01C0E9FF03C0EAFFEFCFE8
:101FC0008DF00AD08B51080DF3CF01F0040E01C043
:101FD000E9FFEA6EEFCF8DF08DAF02D08DB502D064
:101FE000000E01D0010E016E18EF10F004C58BF049
:101FF00069D7015229E005010151010A000105E0FC
:10200000020A09E0030A0DE01DD004C58BF081D758
:102010008E6B70DD19D004C58BF09CD78E6B6ADD9A
:1020200013D00501406B416B04C58BF00001B4D7A0
:10203000015204E0010E0501406F0001020E8E6F97
:1020400059DD02D05ADD00D08DEF10F0FE0E1F6E6C
:10205000000C0501042D01D002D0045348E10151C8
:1020600000010BE0010A0DE0210A1CE0010A1FE05B
:10207000030A2EE0010A31E037D0010E806FE6DF5F
:1020800035D0050EEA6E400EE96EE26A320EE16E60
:10209000080E016EE6CFEEFF012EFCD706C58EF0CE
:1020A00029DD24D0020E806F7A83D0DF1FD0050E89
:1020B000EA6E400EE96EE26A290EE16E070E016ECD
:1020C000E6CFEEFF012EFCD7070E8E6F13DD0ED08C
:1020D00002C57FF08E6B0EDD09D002C531F003C55D
:1020E00030F08E6B07DD02D008DD00D00501000165
:1020F0008DEF10F0186A050100517F0B000107E019
:10210000010A06E0030A05E0230A04E004D03ED6F3
:102110008ED66CD79ED7F1DC00D074EF12F08B51C5
:10212000080DF3CF01F0040E01C0E9FFEA6EEFCF16
:102130008DF08C51020806E18DAD02D08C6B02D07F
:10214000010E8C6F8C51030812E1840E8D6F8B5140
:10215000080DF350040F016E040E036ED8B0032A6D
:1021600001C0E9FF03C0EAFF840EEF6E09D08C2D99
:1021700003D0C80E8D6F04D08C5302E1880E8D6F92
:10218000036A010E026E8B51006E05E0D890023694
:102190000336002EFBD70250FF0A006EFF0E031A13
:1021A00000501C1603501D16D8908B35036AF2CFD1
:1021B00090F0F29E87EC0CF00900F5CF03F090BF91
:1021C000F28E8E6F03C08FF08B51080DF350010F0C
:1021D000016E040E036ED8B0032A01C0E9FF03C0EC
:1021E000EAFF8EC0EFFF8FB18D818FB38D838B514E
:1021F000080DF3CF01F0040E01C0E9FFEA6E8DC0B7
:10220000EFFF000C9751080DF350040F016E040E00
:10221000036ED8B0032A01C0E9FF03C0EAFFEFCF85
:102220009BF09BBF5BD09751080DF350050F016EDB
:10223000040E036ED8B0032A01C0E9FF03C0EAFF11
:1022400098C0EFFF9A51020816E19751080DF3501C
:10225000040F016E040E036ED8B0032A01C0E9FF1B
:1022600003C0EAFFEFCF9BF09BAD02D09A6B02D088
:10227000010E9A6F13D09A51040810E19751080D7E
:10228000F3CF01F0040E01C0E9FFEA6EEFCF9BF03F
:102290009BAD03D0010E9A6F01D09A6B9A2D03D09B
:1022A000C80E9B6F04D09A5302E1880E9B6F99B1C0
:1022B0009B8199B39B839751080DF350040F016ED6
:1022C000040E036ED8B0032A01C0E9FF03C0EAFF81
:1022D0009BC0EFFF010E016E03D000D0000E016E17
:1022E000000C8051010A03E0030A12E022D0EA6ADE
:1022F000320EE96E050EE26EE16A080E016EE6CF5F
:10230000EEFF012EFCD78E6B7AEC0DF0806B15D0B2
:10231000EA6A290EE96E050EE26EE16A070E016EA9
:10232000E6CFEEFF012EFCD7806B8E6B7AEC0DF0C2
:1023300004D0806B47EC0DF000D0BFEF11F08C5152
:10234000080DF350010F016E040E036ED8B0032A7E
:1023500001C0E9FF03C0EAFF036AEFCF01F003C049
:1023600002F0B8EF11F07C817E6B020E8C6FE7D724
:1023700001C07DF0C4EF11F08B5302E1B2D714D04D
:102380008B51020802E1EFD70FD0036A010E026EF3
:102390008B51006E05E0D89002360336002EFBD735
:1023A00002501C1203501D12000C8CC06EFF8C5387
:1023B00003E0040E1E6E02D0020E1E6EE5EF11F059
:1023C000196A186A23C08CF0F0D75EEF12F08C51B6
:1023D000080DF350040F016E040E036ED8B0032AEB
:1023E00001C0E9FF03C0EAFFEFCF94F094BF3FD0F4
:1023F0008C51080DF350060F016E040E036ED8B019
:10240000032A01C0E9FF03C0EAFFECCF03F0ED525D
:10241000EFCF95F003C096F0936B926B9351905D64
:102420001AE303E18F51925D16E28DC0E9FF8EC081
:10243000EAFFEFCF99F096C0EAFF95C0E9FF99C097
:10244000EFFF952BD8B4962B8D2BD8B48E2B922BD7
:10245000D8B4932BE3D78CC097F090C099F08FC07D
:1024600098F091C09AF0CEDE015003D000D0000E5B
:10247000016E49EF12F07B530DE07A91020E8C6FE2
:102480008E6B3A0E8D6F906B7BC08FF0020E916F4A
:102490009ED77B6B4FEF12F07B5302E0ECD701D05D
:1024A0007A8163EF12F08B530AE1182C03D080EC91
:1024B0000DF004D01850020801E182D704D08B51EE
:1024C000020801E1E9D7000C6C308A6F8A338A3345
:1024D0001F0E8A176C523BE1040100513C0B34087B
:1024E0001BE1046B000106D61F3C05D08B6B030E6D
:1024F0008C6F15DE0ED08B6B020E8C6F10DE1F50B2
:10250000FE0807E0976B996B1FC098F0040E9A6F56
:1025100079DE6D9819D0040100513C0B040815E1D7
:1025200000018B6B29DF8B6B020E8C6FF8DD1F5067
:10253000FE080AE01F3C01D007D0976B996B1FC0C3
:1025400098F0010E9A6F5EDE040120D000016C50FD
:10255000040812E1FF0E1F6E8B6BA5DF1F3C01D03C
:1025600008D0976B996B1FC098F0020E9A6F4ADEE5
:1025700002D047EC0DF009D06CB404D08AC08BF0C7
:10258000FBDE03D08AC08BF08EDF04010001FAEF7E
:1025900012F01E5201E12FD068522DE068A404D041
:1025A00069A402D000EF0DF06DA201D024D068A282
:1025B00004D069A202D005EF0DF068A004D069A094
:1025C00002D056EF0DF068A804D069A802D06BEFD6
:1025D0000DF068AC04D069AC02D070EF0DF068AAC1
:1025E00004D069AA02D073EF0DF068A604D069A6E2
:1025F00002D06AD76896A19A2CEF0CF0EA6A890E8D
:10260000E96EEF500EE00F0E016E006A002EFED74D
:10261000012EFBD78F0E006E002EFED70000EF2E8E
:10262000F2D7000CF86AD09E0D8EEA6AE96AC150B2
:10263000C00B0F09C16E070EB46E1E6A206A040E2D
:10264000216E0C0E226E266A7B6B806B816B826B17
:10265000886B000E926EFF0E936EC150C00B0D0979
:10266000C16EC080C082C084C09EC280C69A010E66
:10267000C66E000EC76ED190800ED56ECD6A000E6C
:102680000609CA6EEF0ECB6EB150480BB16E070E45
:10269000B46E9250270E006E002EFED700D0B450BC
:1026A000A19CB56AF29AF29CF29EF2BEFDD7F29A14
:1026B000F29CF29EF2BEFDD7896A896A81AE04D08F
:1026C00081AC02D081AA0AD081B802D081A606D0FE
:1026D00081B407D081A205D081A003D00A0E896EF3
:1026E000EDD781AE19D081AC17D081AA15D081A8C1
:1026F00013D081B611D081B40FD081A20DD081A0AA
:102700000BD0080E896E010E896F78DF0A0E896E74
:10271000050E896F73DFE5D781AE1CD081AC1AD06E
:1027200081AA18D081A816D081B614D081B412D055
:1027300081B210D081A00ED0080E896E010E896F73
:102740005DDF0A0E896E040E896F58DF010E876FF8
:10275000886BE2D781AE1CD081AC1AD081AA18D088
:1027600081A816D081A614D081B412D081B210D025
:1027700081A00ED0080E896E020E896F3FDF0A0E0F
:10278000896E050E896F3ADF010E876F886BE2D77D
:1027900081AE1CD081AC1AD081AA18D081A816D0E5
:1027A00081A614D081B412D081B210D081B00ED0E5
:1027B000080E896E010E896F21DF0A0E896E030EE5
:1027C000896F1CDF010E876F886BE2D781AE1CD04A
:1027D00081AC1AD081AA18D081A816D081A614D0B5
:1027E00081A412D081B210D081B00ED0080E896EB3
:1027F000010E896F03DF0A0E896E030E896FFEDEFC
:10280000010E876F886BE2D781AE1CD081AC1AD0E5
:1028100081AA18D081A816D081A614D081A412D084
:1028200081A210D081B00ED0080E896E010E896F82
:10283000E5DE0A0E896E030E896FE0DE010E876FFA
:10284000886BE2D781AE1CD081AC1AD081AA18D097
:1028500081A816D081B614D081B412D081B210D024
:1028600081B00ED0080E896E010E896FC7DE0A0E88
:10287000896E030E896FC2DE010E876F886BE2D707
:1028800081AE1CD081AC1AD081AA18D081B816D0E4
:1028900081B614D081B412D081B210D081B00ED0E4
:1028A000080E896E010E896FA9DE0A0E896E030E6D
:1028B000896FA4DE010E876F886BE2D781AE1CD0D2
:1028C00081AC1AD081BA18D081B816D081B614D094
:1028D00081B412D081B210D081B00ED0080E896EB2
:1028E000010E896F8BDE0A0E896E030E896F86DEFC
:1028F000010E876F886BE2D781AE19D081AC17D0FB
:1029000081BA15D081B813D081A611D081A40FD07F
:1029100081A20DD081A00BD0020E896E010E896FAD
:102920006DDE0A0E896E050E896F68DEE5D781AE11
:102930001CD081BC1AD081BA18D081B816D081A61B
:1029400014D081A412D081A210D081A00ED0020E8A
:10295000896E010E896F52DE0A0E896E040E896F30
:102960004DDE876B010E886FE2D781AE1BD081BC34
:1029700019D081BA17D081A815D081A613D081A40F
:1029800011D081A20FD081A00DD0020E896E896F67
:1029900035DE0A0E896E050E896F30DE876B010EFB
:1029A000886FE3D781BE1CD081BC1AD081BA18D001
:1029B00081A816D081A614D081A412D081A210D0F3
:1029C00081A00ED0020E896E010E896F17DE0A0EED
:1029D000896E030E896F12DE876B010E886FE2D756
:1029E00081BE1CD081BC1AD081AA18D081A816D073
:1029F00081A614D081A412D081A210D081A00ED0C3
:102A0000020E896E010E896FF9DD0A0E896E030EC2
:102A1000896FF4DD876B010E886FE2D781BE1CD011
:102A200081AC1AD081AA18D081A816D081A614D062
:102A300081A412D081A210D081A00ED0020E896E86
:102A4000010E896FDBDD0A0E896E030E896FD6DDFC
:102A5000876B010E886FE2D781BE1CD081BC1AD073
:102A600081BA18D081B816D081A614D081A412D012
:102A700081A210D081A00ED0020E896E010E896F46
:102A8000BDDD0A0E896E030E896FB8DD876B010EFE
:102A9000886FE2D781BE1CD081BC1AD081BA18D011
:102AA00081B816D081B614D081A412D081A210D0E2
:102AB00081A00ED0020E896E010E896F9FDD0A0E75
:102AC000896E030E896F9ADD876B010E886FE2D7DE
:102AD00081BE1CD081BC1AD081BA18D081B816D062
:102AE00081B614D081B412D081A210D081A00ED0B2
:102AF000020E896E010E896F81DD0A0E896E030E4A
:102B0000896F7CDD876B010E886FE2D7872D36D009
:102B100081AE34D081AC32D081AA30D081A82ED001
:102B200081A62CD081A42AD081A228D081A026D031
:102B3000080E896E050E896F61DD090E896E020E21
:102B4000896F5CDD81AE0AD081AC08D081AA06D045
:102B500081A804D081A602D081A404D081A202D091
:102B600081B00BD0080E896E010E896F47DD0A0E09
:102B7000896E030E896F42DDE5D7C8D7882D36D020
:102B800081AE34D081AC32D081AA30D081A82ED091
:102B900081A62CD081A42AD081A228D081A026D0C1
:102BA000020E896E050E896F29DD060E896E020EF2
:102BB000896F24DD81AE0ED081AC0CD081BA15D0E6
:102BC00081A813D081A611D081A40FD081A20DD0ED
:102BD00081A00BD0020E896E010E896F0FDD0A0EE7
:102BE000896E030E896F0ADDE5D7C8D766D5030065
:020000040030CA
:0E00000024CC3F0E008385000FC00FE00F40A0
:00000001FF
;PIC18F2550
