:020000040000FA
:0418000012EF13F0E0
:08180800056ED8CF06F0E0CF19
:1018100007F00001E9CF0DF0EACF08F0E1CF09F0C1
:10182000E2CF0AF0D9CF0BF0DACF0CF0F3CF14F0FF
:10183000F4CF15F0FACF16F000C00FF001C010F091
:1018400002C011F003C012F004C013F0A0AA2CEFE4
:101850000CF0A1BAC9EF12F00FC000F010C001F0F7
:1018600011C002F012C003F013C004F00E8E0DC0C0
:10187000E9FF08C0EAFF09C0E1FF0AC0E2FF0BC0B0
:10188000D9FF0CC0DAFF14C0F3FF15C0F4FF16C077
:10189000FAFF055007C0E0FF06C0D8FF1000F76A46
:1018A000AE0FF66E180EF7220900F5501200040371
:1018B0000100000000000000000000000000F76AC6
:1018C000CE0FF66E180EF7220900F5501200040034
:1018D0000100000000000000000000000000F76AA6
:1018E000EE0FF66E180EF7220900F55012004000B8
:1018F00008004000000000000000000000000000A0
:101900000000000000000000000000000000F76A76
:101910001E0FF66E190EF7220900F5501200400056
:101920000000400000000000000000000000000077
:101930000000000000000000000000000000F76A46
:101940004E0FF66E190EF7220900F550120009022B
:101950004300020100C0320904000001020201003C
:1019600005240010010424020205240600010524B8
:10197000010001070581030800FA09040100020AB9
:10198000000000070502024000FA0705820240003D
:10199000FA00F76AA20FF66E190EF7220900F55049
:1019A00012000200F76AB40FF66E190EF722090052
:1019B000F5501200120110010200004061043300D2
:1019C000000101020001F76AD60FF66E190EF72228
:1019D0000900F55012000403090408034300430002
:1019E00053001E03430043005300200052005300E5
:1019F0003200330032002000440065006D006F00AB
:101A00006D9269946894D4EF12F06A6A6892DDEF7F
:101A100012F02C6A2B6A250E2A6E800E296E2D6A12
:101A20002E6A080E2F6E7F6B7A93316A306A7B6B59
:101A30007C917A812BEF0DF08C6B8C5101080AE3BD
:101A4000036A8C51270FE96E000E0320EA6EEF6ADD
:101A50008C2BF3D7DED7196A010E1A6E186A5EEF67
:101A60000DF0010E956F95510F080EE3700E952540
:101A7000016E0F0E036ED8B0032A01C0E9FF03C048
:101A8000EAFFEF6A952BEFD71D6A1C6A000C400E27
:101A90000401016F050E036F026B880E006F046B6B
:101AA000050E076F400E066F0001000C6A6A686A37
:101AB0009F0E6B6E390E696E6E6ABED7D2DF160E40
:101AC000706E68A602D06896FCD76D98E0DF030EB2
:101AD0001E6EE3EF12F0698468986D82E9EF12F0F0
:101AE000689CEFEF12F070A002D0D1DF7090689A7E
:101AF000F5EF12F090C01FF0000CFF0E1F6E000CEF
:101B00008E6B265235E08E513F0832E31B5005E0C4
:101B1000020A0DE0010A15E01ED0036A2450F2CF3C
:101B200090F0F29E0CDF90BFF28E8F6F14D0036A9C
:101B30002450F2CF90F0F29E46DF90BFF28E8F6F6E
:101B40000AD0036A2450F2CF90F0F29E2BDF90BFB0
:101B5000F28E8F6F00D0242A26068E518E2B036AB8
:101B6000400FE96E050E0320EA6E8FC0EFFFC9D764
:101B7000265204E18E51400801E0186A8EC090F0B0
:101B8000B9DF000C246A1B6A05010351010A000138
:101B900005E0030A08E0010A09E01FD0120E266ED4
:101BA000030E1B6E1CD0430E266E19D0020E1B6E48
:101BB000036A05010251200FE96E000E0320EA6E50
:101BC000EFCF24F0036A2450F2CF8DF0F29E000193
:101BD000FADE8DBFF28E266E02D08FDF0CD00501AB
:101BE000075305E12650065D02E206C526F0010E08
:101BF000186E000185DF15EF0FF08D5304E1040E20
:101C00001E6E2FDFC1D0050E1E6E906F800E8F6F7F
:101C1000010E8E6F8E510F08D8A0B6D0916B036A5B
:101C20008E51F2CF95F0F29E4ADE95BFF28E000AF9
:101C300051E0040E916FD8908E35036AF2CF95F083
:101C4000F29E65DE0900F5CF03F095BFF28E926F2C
:101C500003C093F08E51080DF350010F016E040E76
:101C6000036ED8B0032A01C0E9FF03C0EAFF92C0A7
:101C7000EFFF8E51080DF350020F016E040E036E3C
:101C8000D8B0032A01C0E9FF03C0EAFF90C0ECFF0F
:101C9000ED528FC0EFFFD8908E35036AF2CF95F0EA
:101CA000F29E35DE0900F5CF03F095BFF28E8F2747
:101CB00003509023880E946F93B1948193B39483CF
:101CC0008E51080DF3CF01F0040E01C0E9FFEA6E5A
:101CD00094C0EFFF036A8E51F2CF95F0F29EDFDDE4
:101CE00095BFF28E000A31E091838E51080DF350BA
:101CF000060F016E040E036ED8B0032A01C0E9FF7F
:101D000003C0EAFF90C0ECFFED528FC0EFFFD89008
:101D10008E35036AF2CF95F0F29EE1DD0900F5CF32
:101D200003F095BFF28E8F27035090238E51080D3C
:101D3000F350040F016E040E036ED8B0032A01C0E5
:101D4000E9FF03C0EAFF400EEF6E9151060802E181
:101D50000E0E916F036A8E51F2CF95F0F29E9FDDC9
:101D600095BFF28E020801E09189700E8E25016EFA
:101D70000F0E036ED8B0032A01C0E9FF03C0EAFFCB
:101D800091C0EFFF8E2B46D70FEF0FF005010151E9
:101D900000010DE0010A14E0020A1EE0060A27E035
:101DA000030A2CE00E0A2BE0010A2FE03CD01AC0F7
:101DB00040F50501416B020E0001906F9BDE35D0AE
:101DC0000501022D06D0010E1A160001906B92DE5D
:101DD00002D0000192DE29D00501022D05D01A8221
:101DE0000001906B87DE02D0000187DE1ED0020E5C
:101DF000186E02C523F0906B7DDE17D0C3D619C0D4
:101E000040F5010E906F76DE10D0050102510108F9
:101E100008E302C519F002C58DF00001EED6906B03
:101E200069DE000102D069DE00D08DEF10F019C02C
:101E30008DF005010151000105E00A0A0BE0010ADD
:101E40002BE03CD00501406B416B020E0001906F0E
:101E500051DE36D08D531EE0010E8D5D036AF2CF48
:101E60008FF0F29E96DD8FBFF28E016E0501045D4C
:101E7000D8A002D000010ED0036A0451270FE96EEA
:101E8000000E0320EA6EEFCF40F5010E0001906FC7
:101E900031DE01D032DE14D08D530EE0036A05012D
:101EA0000451270FE96E000E0320EA6E02C5EFFF12
:101EB0000001906B1FDE01D020DE02D01EDE00D0BC
:101EC0008DEF10F08E918DBF8E818D9F8EA110D0E1
:101ED000036A8D51F2CF8FF0F29EE1DC8FBFF28E5C
:101EE000000A02E1000E01D0010E016E10D00FD0E9
:101EF000036A8D51F2CF8FF0F29EE1DC8FBFF28E3C
:101F0000000A02E1000E01D0010E016E00D0F9EFCF
:101F10000FF08E918DBF8E818D9F8EA110D08D512F
:101F2000080DF350040F016E040E036ED8B0032A9F
:101F300001C0E9FF03C0EAFF880EEF6E09D08D51A2
:101F4000080DF3CF01F0040E01C0E9FFEA6EEF6A5D
:101F500008EF10F08E918DBF8E818D9F8EA110D0D5
:101F60008D51080DF350040F016E040E036ED8B0AE
:101F7000032A01C0E9FF03C0EAFF840EEF6E0AD016
:101F80008D51080DF3CF01F0040E01C0E9FFEA6E98
:101F9000840EEF6E0EEF10F08E918DBF8E818D9FAF
:101FA0008EA110D08D51080DF350040F016E040E58
:101FB000036ED8B0032A01C0E9FF03C0EAFFEFCFE8
:101FC0008FF00AD08D51080DF3CF01F0040E01C03F
:101FD000E9FFEA6EEFCF8FF08FAF02D08FB502D05E
:101FE000000E01D0010E016E18EF10F004C58DF047
:101FF00069D7015229E005010151010A000105E0FC
:10200000020A09E0030A0DE01DD004C58DF081D756
:10201000906B70DD19D004C58DF09CD7906B6ADD94
:1020200013D00501406B416B04C58DF00001B4D79E
:10203000015204E0010E0501406F0001020E906F95
:1020400059DD02D05ADD00D08DEF10F0FE0E1F6E6C
:10205000000C0501042D01D002D0045348E10151C8
:1020600000010BE0010A0DE0210A1CE0010A1FE05B
:10207000030A2EE0010A31E037D0010E806FE6DF5F
:1020800035D0050EEA6E400EE96EE26A320EE16E60
:10209000080E016EE6CFEEFF012EFCD706C590F0CC
:1020A00029DD24D0020E806F7A83D0DF1FD0050E89
:1020B000EA6E400EE96EE26A290EE16E070E016ECD
:1020C000E6CFEEFF012EFCD7070E906F13DD0ED08A
:1020D00002C57FF0906B0EDD09D002C531F003C55B
:1020E00030F0906B07DD02D008DD00D00501000163
:1020F0008DEF10F0186A050100517F0B000107E019
:10210000010A06E0030A05E0230A04E004D03ED6F3
:102110008ED66CD79ED7F1DC00D074EF12F08D51C3
:10212000080DF3CF01F0040E01C0E9FFEA6EEFCF16
:102130008FF08E51020806E18FAD02D08E6B02D077
:10214000010E8E6F8E51030812E1840E8F6F8D5138
:10215000080DF350040F016E040E036ED8B0032A6D
:1021600001C0E9FF03C0EAFF840EEF6E09D08E2D97
:1021700003D0C80E8F6F04D08E5302E1880E8F6F8C
:10218000036A010E026E8D51006E05E0D890023692
:102190000336002EFBD70250FF0A006EFF0E031A13
:1021A00000501C1603501D16D8908D35036AF2CFCF
:1021B00092F0F29E87EC0CF00900F5CF03F092BF8D
:1021C000F28E906F03C091F08D51080DF350010F06
:1021D000016E040E036ED8B0032A01C0E9FF03C0EC
:1021E000EAFF90C0EFFF91B18F8191B38F838D5142
:1021F000080DF3CF01F0040E01C0E9FFEA6E8FC0B5
:10220000EFFF000C9951080DF350040F016E040EFE
:10221000036ED8B0032A01C0E9FF03C0EAFFEFCF85
:102220009DF09DBF5BD09951080DF350050F016ED5
:10223000040E036ED8B0032A01C0E9FF03C0EAFF11
:102240009AC0EFFF9C51020816E19951080DF35016
:10225000040F016E040E036ED8B0032A01C0E9FF1B
:1022600003C0EAFFEFCF9DF09DAD02D09C6B02D082
:10227000010E9C6F13D09C51040810E19951080D78
:10228000F3CF01F0040E01C0E9FFEA6EEFCF9DF03D
:102290009DAD03D0010E9C6F01D09C6B9C2D03D093
:1022A000C80E9D6F04D09C5302E1880E9D6F9BB1B8
:1022B0009D819BB39D839951080DF350040F016ECE
:1022C000040E036ED8B0032A01C0E9FF03C0EAFF81
:1022D0009DC0EFFF010E016E03D000D0000E016E15
:1022E000000C8051010A03E0030A12E022D0EA6ADE
:1022F000320EE96E050EE26EE16A080E016EE6CF5F
:10230000EEFF012EFCD7906B7AEC0DF0806B15D0B0
:10231000EA6A290EE96E050EE26EE16A070E016EA9
:10232000E6CFEEFF012EFCD7806B906B7AEC0DF0C0
:1023300004D0806B47EC0DF000D0BFEF11F08E5150
:10234000080DF350010F016E040E036ED8B0032A7E
:1023500001C0E9FF03C0EAFF036AEFCF01F003C049
:1023600002F0B8EF11F07C817E6B020E8E6FE7D722
:1023700001C07DF0C4EF11F08D5302E1B2D714D04B
:102380008D51020802E1EFD70FD0036A010E026EF1
:102390008D51006E05E0D89002360336002EFBD733
:1023A00002501C1203501D12000C8EC06EFF8E5383
:1023B00003E0040E1E6E02D0020E1E6EE5EF11F059
:1023C000196A186A23C08EF0F0D75EEF12F08E51B2
:1023D000080DF350040F016E040E036ED8B0032AEB
:1023E00001C0E9FF03C0EAFFEFCF96F096BF3FD0F0
:1023F0008E51080DF350060F016E040E036ED8B017
:10240000032A01C0E9FF03C0EAFFECCF03F0ED525D
:10241000EFCF97F003C098F0956B946B9551925D58
:102420001AE303E19151945D16E28FC0E9FF90C079
:10243000EAFFEFCF9BF098C0EAFF97C0E9FF9BC08F
:10244000EFFF972BD8B4982B8F2BD8B4902B942BCD
:10245000D8B4952BE3D78EC099F092C09BF091C071
:102460009AF093C09CF0CEDE015003D000D0000E55
:10247000016E49EF12F07B530DE07A91020E8E6FE0
:10248000906B3A0E8F6F926B7BC091F0020E936F40
:102490009ED77B6B4FEF12F07B5302E0ECD701D05D
:1024A0007A8163EF12F08D530AE1182C03D080EC8F
:1024B0000DF004D01850020801E182D704D08D51EC
:1024C000020801E1E9D7000C6C308C6F8C338C333F
:1024D0001F0E8C176C523BE1040100513C0B340879
:1024E0001BE1046B000106D61F3C05D08D6B030E6B
:1024F0008E6F15DE0ED08D6B020E8E6F10DE1F50AC
:10250000FE0807E0996B9B6B1FC09AF0040E9C6F4E
:1025100079DE6D9819D0040100513C0B040815E1D7
:1025200000018D6B29DF8D6B020E8E6FF8DD1F5061
:10253000FE080AE01F3C01D007D0996B9B6B1FC0BF
:102540009AF0010E9C6F5EDE040120D000016C50F9
:10255000040812E1FF0E1F6E8D6BA5DF1F3C01D03A
:1025600008D0996B9B6B1FC09AF0020E9C6F4ADEDD
:1025700002D047EC0DF009D06CB404D08CC08DF0C3
:10258000FBDE03D08CC08DF08EDF04010001FAEF7A
:1025900012F01E5201E12FD068522DE068A404D041
:1025A00069A402D000EF0DF06DA201D024D068A282
:1025B00004D069A202D005EF0DF068A004D069A094
:1025C00002D056EF0DF068A804D069A802D06BEFD6
:1025D0000DF068AC04D069AC02D070EF0DF068AAC1
:1025E00004D069AA02D073EF0DF068A604D069A6E2
:1025F00002D06AD76896A19A2CEF0CF0EA6A8B0E8B
:10260000E96EEF500EE00F0E016E006A002EFED74D
:10261000012EFBD78F0E006E002EFED70000EF2E8E
:10262000F2D7000CF86AD09E0D8EEA6AE96AC150B2
:10263000C00B0F09C16E070EB46E1E6A206A040E2D
:10264000216E0C0E226E266A7B6B806B816B826B17
:102650008A6B000E926EFF0E936E400E946EC15008
:10266000C00B0D09C16EC080C082C084C09EC280F4
:10267000C69A010EC66E000EC76ED190800ED56E42
:10268000CD6A000E0609CA6EEF0ECB6EB150480B34
:10269000B16E070EB46E9250270E006E002EFED75C
:1026A00000D0B450A19CB56AF29AF29CF29EF2BEA0
:1026B000FDD7F29AF29CF29EF2BEFDD7896A896A32
:1026C00082BC14D081A802D081B610D0090E896EC8
:1026D000B40E8B6F93DF0A0E896E960E8B6F8EDFB2
:1026E000876B886B896B010E8A6FEAD781AE16D033
:1026F00081AC14D081AA12D081B810D081B60ED08E
:1027000081A40CD081A20AD081A008D00A0E896EC3
:10271000876B886B010E896F8A6BE8D781AE16D004
:1027200081AC14D081AA12D081B810D081B60ED05D
:1027300081B40CD081A20AD081A008D00A0E896E83
:10274000876B886B010E896F8A6BE8D781AE16D0D4
:1027500081AC14D081BA12D081B810D081B60ED01D
:1027600081A40CD081A20AD081A008D00A0E896E63
:10277000876B886B010E896F8A6BE8D781AE16D0A4
:1027800081AC14D081BA12D081B810D081B60ED0ED
:1027900081B40CD081A20AD081A008D00A0E896E23
:1027A000876B886B010E896F8A6BE8D781AE1ED06C
:1027B00081AC1CD081AA1AD081A818D081B616D0BD
:1027C00081B414D081A212D081A010D0080E896EDD
:1027D000010E8B6F13DF0A0E896E040E8B6F0EDFF6
:1027E000876B886B010E896F8A6BE0D781AE1ED034
:1027F00081AC1CD081AA1AD081A818D081B616D07D
:1028000081B414D081B212D081A010D0080E896E8C
:10281000020E8B6FF3DE0A0E896E030E8B6FEEDEF7
:10282000010E876F886B896B8A6BE0D781AE1ED0F3
:1028300081AC1CD081AA1AD081A818D081A616D04C
:1028400081B414D081B212D081A010D0080E896E4C
:10285000010E8B6FD3DE0A0E896E020E8B6FCEDEF9
:10286000010E876F886B896B8A6BE0D781AE1ED0B3
:1028700081AC1CD081AA1AD081A818D081A616D00C
:1028800081B414D081B212D081B010D0080E896EFC
:10289000020E8B6FB3DE0A0E896E030E8B6FAEDEF7
:1028A000010E876F886B896B8A6BE0D781AE1ED073
:1028B00081AC1CD081AA1AD081A818D081A616D0CC
:1028C00081A414D081B212D081B010D0080E896ECC
:1028D000020E8B6F93DE090E896E010E8B6F8EDEFA
:1028E000010E876F886B896B8A6BE0D781AE1ED033
:1028F00081AC1CD081AA1AD081A818D081A616D08C
:1029000081A414D081A212D081B010D0080E896E9B
:10291000030E8B6F73DE090E896E010E8B6F6EDEF8
:10292000010E876F886B896B8A6BE0D781AE1ED0F2
:1029300081AC1CD081AA1AD081A818D081B616D03B
:1029400081B414D081B212D081B010D0080E896E3B
:10295000030E8B6F53DE090E896E010E8B6F4EDEF8
:10296000010E876F886B896B8A6BE0D781AE1ED0B2
:1029700081AC1CD081AA1AD081B818D081B616D0EB
:1029800081B414D081B212D081B010D0080E896EFB
:10299000030E8B6F33DE090E896E010E8B6F2EDEF8
:1029A000010E876F886B896B8A6BE0D781AE1ED072
:1029B00081AC1CD081AA1AD081B818D081B616D0AB
:1029C00081B414D081B212D081A010D0080E896ECB
:1029D000030E8B6F13DE090E896E010E8B6F0EDEF8
:1029E000010E876F886B896B8A6BE0D781AE1ED032
:1029F00081AC1CD081BA1AD081B818D081B616D05B
:102A000081B414D081B212D081B010D0080E896E7A
:102A1000040E8B6FF3DD090E896E010E8B6FEEDDF8
:102A2000010E876F886B896B8A6BE0D781AE1ED0F1
:102A300081BC1CD081BA1AD081B818D081B616D00A
:102A400081B414D081B212D081B010D0080E896E3A
:102A5000040E8B6FD3DD090E896E010E8B6FCEDDF8
:102A6000010E876F886B896B8A6BE0D781AE1ED0B1
:102A700081AC1CD081BA1AD081B818D081A616D0EA
:102A800081A414D081A212D081A010D0020E896E30
:102A9000010E8B6FB3DD0A0E896E040E8B6FAEDDF7
:102AA000876B886B010E896F8A6BE0D781AE1DD072
:102AB00081BC1BD081BA19D081B817D081A615D09E
:102AC00081A413D081A211D081A00FD0020E896EF3
:102AD0008B6F94DD0A0E896E030E8B6F8FDD876B13
:102AE000010E886F896B8A6BE1D781AE1ED081BCE5
:102AF0001CD081BA1AD081A818D081A616D081A482
:102B000014D081A212D081A010D0020E896E010EC5
:102B10008B6F74DD0A0E896E020E8B6F6FDD876B13
:102B2000010E886F896B8A6BE0D781BE1DD081BC96
:102B30001BD081BA19D081A817D081A615D081A445
:102B400013D081A211D081A00FD0020E896E8B6F9D
:102B500055DD0A0E896E030E8B6F50DD876B010EFB
:102B6000886F896B8A6BE1D781BE1DD081BC1BD079
:102B700081AA19D081A817D081A615D081A413D01D
:102B800081A211D081A00FD0020E896E8B6F36DD2D
:102B9000060E896E010E8B6F31DD876B010E886F1B
:102BA000896B8A6BE1D781BE1ED081AC1CD081AA13
:102BB0001AD081A818D081A616D081A414D081A2E1
:102BC00012D081A010D0020E896E030E8B6F16DD1D
:102BD000060E896E010E8B6F11DD876B010E886FFB
:102BE000896B8A6BE0D781BE1ED081BC1CD081BAB4
:102BF0001AD081B818D081A616D081A414D081A291
:102C000012D081A010D0020E896E030E8B6FF6DCFD
:102C1000060E896E010E8B6FF1DC876B010E886FDB
:102C2000896B8A6BE0D781BE1ED081BC1CD081BA73
:102C30001AD081B818D081B616D081A414D081A240
:102C400012D081A010D0020E896E030E8B6FD6DCDD
:102C5000060E896E010E8B6FD1DC876B010E886FBB
:102C6000896B8A6BE0D781AE1ED081BC1CD081BA43
:102C70001AD081B818D081B616D081A414D081A200
:102C800012D081A010D0020E896E030E8B6FB6DCBD
:102C9000060E896E010E8B6FB1DC876B010E886F9B
:102CA000896B8A6BE0D781BE1ED081BC1CD081BAF3
:102CB0001AD081B818D081B616D081B414D081A2B0
:102CC00012D081A010D0020E896E040E8B6F96DC9C
:102CD000060E896E010E8B6F91DC876B010E886F7B
:102CE000896B8A6BE0D781BE1ED081BC1CD081BAB3
:102CF0001AD081B818D081B616D081B414D081B260
:102D000012D081A010D0020E896E040E8B6F76DC7B
:102D1000060E896E010E8B6F71DC876B010E886F5A
:102D2000896B8A6BE0D7872D37D081AE35D081ACE7
:102D300033D081AA31D081A82FD081A62DD081A4F3
:102D40002BD081A229D081A027D0080E896E010E38
:102D50008B6F54DC090E896E020E8B6F4FDC81AED7
:102D60000AD081AC08D081AA06D081A804D081A65F
:102D700002D081A404D081A202D081B00CD0876B94
:102D8000080E896E020E8B6F39DC090E896E020EF9
:102D90008B6F34DCE4D7C7D7882D37D081AE35D0E0
:102DA00081AC33D081AA31D081A82FD081A62DD07B
:102DB00081A42BD081A229D081A027D0020E896EB8
:102DC000010E8B6F1BDC060E896E020E8B6F16DCFC
:102DD00081AE0ED081AC0CD081BA16D081A814D0AF
:102DE00081A612D081A410D081A20ED081A00CD0D7
:102DF000886B020E896E8B6F01DC060E896E020EE7
:102E00008B6FFEEC12F0E4D7C7D7892D82D081AE4C
:102E100080D081AC7ED081AA7CD081A87AD081A6D6
:102E200078D081A476D081A274D081A072D00A0E0D
:102E3000896E81AE11D081AC0FD081AA0DD081B83E
:102E40000BD081B609D081A407D081A205D081A082
:102E500003D00A0E896EEDD781AE11D081AC0FD0B0
:102E600081AA0DD081B80BD081B609D081B407D02A
:102E700081A205D081A003D00A0E896EEDD781AE64
:102E800011D081AC0FD081BA0DD081B80BD081B6F2
:102E900009D081A407D081A205D081A003D00A0E59
:102EA000896EEDD781AE19D081AC17D081AA15D02B
:102EB00081A813D081B611D081B40FD081A00DD0DC
:102EC000080E896E010E8B6FFEEC12F00A0E896EF1
:102ED000030E8B6FFEEC12F0E5D781AE19D081ACFA
:102EE00017D081BA15D081B813D081A611D081A492
:102EF0000FD081A00DD0020E896E010E8B6FFEECFB
:102F000012F00A0E896E030E8B6FFEEC12F0E5D7FD
:102F10007CD78A2D4DD081AE4BD081AC49D081AACF
:102F200047D081A845D081A643D081A441D081A2B9
:102F30003FD081A03DD00A0E896E020E8B6FFEEC51
:102F400012F0020E896E040E8B6FFEEC12F081A659
:102F500006D081A404D081A202D081B010D0080E86
:102F6000896E030E8B6FFEEC12F00A0E896E010E55
:102F70008B6FFEEC12F0010E876F8A6BE8D781AE83
:102F800006D081AC04D081AA02D081B810D0020E44
:102F9000896E030E8B6FFEEC12F00A0E896E010E25
:102FA0008B6FFEEC12F0010E886F8A6BE8D7B1D7F9
:062FB0005FEF13F00300C7
:020000040030CA
:0E00000024CC3F0E008385000FC00FE00F40A0
:00000001FF
;PIC18F2550
