:020000040000FA
:0418000012EF13F0E0
:08180800056ED8CF06F0E0CF19
:1018100007F00001E9CF0DF0EACF08F0E1CF09F0C1
:10182000E2CF0AF0D9CF0BF0DACF0CF0F3CF14F0FF
:10183000F4CF15F0FACF16F000C00FF001C010F091
:1018400002C011F003C012F004C013F0A0AA2CEFE4
:101850000CF0A1BAC9EF12F00FC000F010C001F0F7
:1018600011C002F012C003F013C004F00E8E0DC0C0
:10187000E9FF08C0EAFF09C0E1FF0AC0E2FF0BC0B0
:10188000D9FF0CC0DAFF14C0F3FF15C0F4FF16C077
:10189000FAFF055007C0E0FF06C0D8FF1000F76A46
:1018A000AE0FF66E180EF7220900F5501200040371
:1018B0000100000000000000000000000000F76AC6
:1018C000CE0FF66E180EF7220900F5501200040034
:1018D0000100000000000000000000000000F76AA6
:1018E000EE0FF66E180EF7220900F55012004000B8
:1018F00008004000000000000000000000000000A0
:101900000000000000000000000000000000F76A76
:101910001E0FF66E190EF7220900F5501200400056
:101920000000400000000000000000000000000077
:101930000000000000000000000000000000F76A46
:101940004E0FF66E190EF7220900F550120009022B
:101950004300020100C0320904000001020201003C
:1019600005240010010424020205240600010524B8
:10197000010001070581030800FA09040100020AB9
:10198000000000070502024000FA0705820240003D
:10199000FA00F76AA20FF66E190EF7220900F55049
:1019A00012000200F76AB40FF66E190EF722090052
:1019B000F5501200120110010200004061043300D2
:1019C000000101020001F76AD60FF66E190EF72228
:1019D0000900F55012000403090408034300430002
:1019E00053001E03430043005300200052005300E5
:1019F0003200330032002000440065006D006F00AB
:101A00006D9269946894D4EF12F06A6A6892DDEF7F
:101A100012F02C6A2B6A250E2A6E800E296E2D6A12
:101A20002E6A080E2F6E7F6B7A93316A306A7B6B59
:101A30007C917A812BEF0DF08B6B8B5101080AE3BF
:101A4000036A8B51270FE96E000E0320EA6EEF6ADE
:101A50008B2BF3D7DED7196A010E1A6E186A5EEF68
:101A60000DF0010E946F94510F080EE3700E942543
:101A7000016E0F0E036ED8B0032A01C0E9FF03C048
:101A8000EAFFEF6A942BEFD71D6A1C6A000C400E28
:101A90000401016F050E036F026B880E006F046B6B
:101AA000050E076F400E066F0001000C6A6A686A37
:101AB0009F0E6B6E390E696E6E6ABED7D2DF160E40
:101AC000706E68A602D06896FCD76D98E0DF030EB2
:101AD0001E6EE3EF12F0698468986D82E9EF12F0F0
:101AE000689CEFEF12F070A002D0D1DF7090689A7E
:101AF000F5EF12F08FC01FF0000CFF0E1F6E000CF0
:101B00008D6B265235E08D513F0832E31B5005E0C6
:101B1000020A0DE0010A15E01ED0036A2450F2CF3C
:101B20008FF0F29E0CDF8FBFF28E8E6F14D0036A9F
:101B30002450F2CF8FF0F29E46DF8FBFF28E8E6F71
:101B40000AD0036A2450F2CF8FF0F29E2BDF8FBFB2
:101B5000F28E8E6F00D0242A26068D518D2B036ABB
:101B6000400FE96E050E0320EA6E8EC0EFFFC9D765
:101B7000265204E18D51400801E0186A8DC08FF0B3
:101B8000B9DF000C246A1B6A05010351010A000138
:101B900005E0030A08E0010A09E01FD0120E266ED4
:101BA000030E1B6E1CD0430E266E19D0020E1B6E48
:101BB000036A05010251200FE96E000E0320EA6E50
:101BC000EFCF24F0036A2450F2CF8CF0F29E000194
:101BD000FADE8CBFF28E266E02D08FDF0CD00501AC
:101BE000075305E12650065D02E206C526F0010E08
:101BF000186E000185DF15EF0FF08C5304E1040E21
:101C00001E6E2FDFC1D0050E1E6E8F6F800E8E6F81
:101C1000010E8D6F8D510F08D8A0B6D0906B036A5E
:101C20008D51F2CF94F0F29E4ADE94BFF28E000AFC
:101C300051E0040E906FD8908D35036AF2CF94F086
:101C4000F29E65DE0900F5CF03F094BFF28E916F2E
:101C500003C092F08D51080DF350010F016E040E78
:101C6000036ED8B0032A01C0E9FF03C0EAFF91C0A8
:101C7000EFFF8D51080DF350020F016E040E036E3D
:101C8000D8B0032A01C0E9FF03C0EAFF8FC0ECFF10
:101C9000ED528EC0EFFFD8908D35036AF2CF94F0ED
:101CA000F29E35DE0900F5CF03F094BFF28E8E2749
:101CB00003508F23880E936F92B1938192B39383D5
:101CC0008D51080DF3CF01F0040E01C0E9FFEA6E5B
:101CD00093C0EFFF036A8D51F2CF94F0F29EDFDDE7
:101CE00094BFF28E000A31E090838D51080DF350BD
:101CF000060F016E040E036ED8B0032A01C0E9FF7F
:101D000003C0EAFF8FC0ECFFED528EC0EFFFD8900A
:101D10008D35036AF2CF94F0F29EE1DD0900F5CF34
:101D200003F094BFF28E8E2703508F238D51080D40
:101D3000F350040F016E040E036ED8B0032A01C0E5
:101D4000E9FF03C0EAFF400EEF6E9051060802E182
:101D50000E0E906F036A8D51F2CF94F0F29E9FDDCC
:101D600094BFF28E020801E09089700E8D25016EFD
:101D70000F0E036ED8B0032A01C0E9FF03C0EAFFCB
:101D800090C0EFFF8D2B46D70FEF0FF005010151EB
:101D900000010DE0010A14E0020A1EE0060A27E035
:101DA000030A2CE00E0A2BE0010A2FE03CD01AC0F7
:101DB00040F50501416B020E00018F6F9BDE35D0AF
:101DC0000501022D06D0010E1A1600018F6B92DE5E
:101DD00002D0000192DE29D00501022D05D01A8221
:101DE00000018F6B87DE02D0000187DE1ED0020E5D
:101DF000186E02C523F08F6B7DDE17D0C3D619C0D5
:101E000040F5010E8F6F76DE10D0050102510108FA
:101E100008E302C519F002C58CF00001EED68F6B05
:101E200069DE000102D069DE00D08DEF10F019C02C
:101E30008CF005010151000105E00A0A0BE0010ADE
:101E40002BE03CD00501406B416B020E00018F6F0F
:101E500051DE36D08C531EE0010E8C5D036AF2CF4A
:101E60008EF0F29E96DD8EBFF28E016E0501045D4E
:101E7000D8A002D000010ED0036A0451270FE96EEA
:101E8000000E0320EA6EEFCF40F5010E00018F6FC8
:101E900031DE01D032DE14D08C530EE0036A05012E
:101EA0000451270FE96E000E0320EA6E02C5EFFF12
:101EB00000018F6B1FDE01D020DE02D01EDE00D0BD
:101EC0008DEF10F08D918CBF8D818C9F8DA110D0E6
:101ED000036A8C51F2CF8EF0F29EE1DC8EBFF28E5F
:101EE000000A02E1000E01D0010E016E10D00FD0E9
:101EF000036A8C51F2CF8EF0F29EE1DC8EBFF28E3F
:101F0000000A02E1000E01D0010E016E00D0F9EFCF
:101F10000FF08D918CBF8D818C9F8DA110D08C5135
:101F2000080DF350040F016E040E036ED8B0032A9F
:101F300001C0E9FF03C0EAFF880EEF6E09D08C51A3
:101F4000080DF3CF01F0040E01C0E9FFEA6EEF6A5D
:101F500008EF10F08D918CBF8D818C9F8DA110D0DA
:101F60008C51080DF350040F016E040E036ED8B0AF
:101F7000032A01C0E9FF03C0EAFF840EEF6E0AD016
:101F80008C51080DF3CF01F0040E01C0E9FFEA6E99
:101F9000840EEF6E0EEF10F08D918CBF8D818C9FB3
:101FA0008DA110D08C51080DF350040F016E040E5A
:101FB000036ED8B0032A01C0E9FF03C0EAFFEFCFE8
:101FC0008EF00AD08C51080DF3CF01F0040E01C041
:101FD000E9FFEA6EEFCF8EF08EAF02D08EB502D061
:101FE000000E01D0010E016E18EF10F004C58CF048
:101FF00069D7015229E005010151010A000105E0FC
:10200000020A09E0030A0DE01DD004C58CF081D757
:102010008F6B70DD19D004C58CF09CD78F6B6ADD97
:1020200013D00501406B416B04C58CF00001B4D79F
:10203000015204E0010E0501406F0001020E8F6F96
:1020400059DD02D05ADD00D08DEF10F0FE0E1F6E6C
:10205000000C0501042D01D002D0045348E10151C8
:1020600000010BE0010A0DE0210A1CE0010A1FE05B
:10207000030A2EE0010A31E037D0010E806FE6DF5F
:1020800035D0050EEA6E400EE96EE26A320EE16E60
:10209000080E016EE6CFEEFF012EFCD706C58FF0CD
:1020A00029DD24D0020E806F7A83D0DF1FD0050E89
:1020B000EA6E400EE96EE26A290EE16E070E016ECD
:1020C000E6CFEEFF012EFCD7070E8F6F13DD0ED08B
:1020D00002C57FF08F6B0EDD09D002C531F003C55C
:1020E00030F08F6B07DD02D008DD00D00501000164
:1020F0008DEF10F0186A050100517F0B000107E019
:10210000010A06E0030A05E0230A04E004D03ED6F3
:102110008ED66CD79ED7F1DC00D074EF12F08C51C4
:10212000080DF3CF01F0040E01C0E9FFEA6EEFCF16
:102130008EF08D51020806E18EAD02D08D6B02D07B
:10214000010E8D6F8D51030812E1840E8E6F8C513C
:10215000080DF350040F016E040E036ED8B0032A6D
:1021600001C0E9FF03C0EAFF840EEF6E09D08D2D98
:1021700003D0C80E8E6F04D08D5302E1880E8E6F8F
:10218000036A010E026E8C51006E05E0D890023693
:102190000336002EFBD70250FF0A006EFF0E031A13
:1021A00000501C1603501D16D8908C35036AF2CFD0
:1021B00091F0F29E87EC0CF00900F5CF03F091BF8F
:1021C000F28E8F6F03C090F08C51080DF350010F09
:1021D000016E040E036ED8B0032A01C0E9FF03C0EC
:1021E000EAFF8FC0EFFF90B18E8190B38E838C5148
:1021F000080DF3CF01F0040E01C0E9FFEA6E8EC0B6
:10220000EFFF000C9851080DF350040F016E040EFF
:10221000036ED8B0032A01C0E9FF03C0EAFFEFCF85
:102220009CF09CBF5BD09851080DF350050F016ED8
:10223000040E036ED8B0032A01C0E9FF03C0EAFF11
:1022400099C0EFFF9B51020816E19851080DF35019
:10225000040F016E040E036ED8B0032A01C0E9FF1B
:1022600003C0EAFFEFCF9CF09CAD02D09B6B02D085
:10227000010E9B6F13D09B51040810E19851080D7B
:10228000F3CF01F0040E01C0E9FFEA6EEFCF9CF03E
:102290009CAD03D0010E9B6F01D09B6B9B2D03D097
:1022A000C80E9C6F04D09B5302E1880E9C6F9AB1BC
:1022B0009C819AB39C839851080DF350040F016ED2
:1022C000040E036ED8B0032A01C0E9FF03C0EAFF81
:1022D0009CC0EFFF010E016E03D000D0000E016E16
:1022E000000C8051010A03E0030A12E022D0EA6ADE
:1022F000320EE96E050EE26EE16A080E016EE6CF5F
:10230000EEFF012EFCD78F6B7AEC0DF0806B15D0B1
:10231000EA6A290EE96E050EE26EE16A070E016EA9
:10232000E6CFEEFF012EFCD7806B8F6B7AEC0DF0C1
:1023300004D0806B47EC0DF000D0BFEF11F08D5151
:10234000080DF350010F016E040E036ED8B0032A7E
:1023500001C0E9FF03C0EAFF036AEFCF01F003C049
:1023600002F0B8EF11F07C817E6B020E8D6FE7D723
:1023700001C07DF0C4EF11F08C5302E1B2D714D04C
:102380008C51020802E1EFD70FD0036A010E026EF2
:102390008C51006E05E0D89002360336002EFBD734
:1023A00002501C1203501D12000C8DC06EFF8D5385
:1023B00003E0040E1E6E02D0020E1E6EE5EF11F059
:1023C000196A186A23C08DF0F0D75EEF12F08D51B4
:1023D000080DF350040F016E040E036ED8B0032AEB
:1023E00001C0E9FF03C0EAFFEFCF95F095BF3FD0F2
:1023F0008D51080DF350060F016E040E036ED8B018
:10240000032A01C0E9FF03C0EAFFECCF03F0ED525D
:10241000EFCF96F003C097F0946B936B9451915D5E
:102420001AE303E19051935D16E28EC0E9FF8FC07D
:10243000EAFFEFCF9AF097C0EAFF96C0E9FF9AC093
:10244000EFFF962BD8B4972B8E2BD8B48F2B932BD2
:10245000D8B4942BE3D78DC098F091C09AF090C077
:1024600099F092C09BF0CEDE015003D000D0000E58
:10247000016E49EF12F07B530DE07A91020E8D6FE1
:102480008F6B3A0E8E6F916B7BC090F0020E926F45
:102490009ED77B6B4FEF12F07B5302E0ECD701D05D
:1024A0007A8163EF12F08C530AE1182C03D080EC90
:1024B0000DF004D01850020801E182D704D08C51ED
:1024C000020801E1E9D7000C6C308B6F8B338B3342
:1024D0001F0E8B176C523BE1040100513C0B34087A
:1024E0001BE1046B000106D61F3C05D08C6B030E6C
:1024F0008D6F15DE0ED08C6B020E8D6F10DE1F50AF
:10250000FE0807E0986B9A6B1FC099F0040E9B6F52
:1025100079DE6D9819D0040100513C0B040815E1D7
:1025200000018C6B29DF8C6B020E8D6FF8DD1F5064
:10253000FE080AE01F3C01D007D0986B9A6B1FC0C1
:1025400099F0010E9B6F5EDE040120D000016C50FB
:10255000040812E1FF0E1F6E8C6BA5DF1F3C01D03B
:1025600008D0986B9A6B1FC099F0020E9B6F4ADEE1
:1025700002D047EC0DF009D06CB404D08BC08CF0C5
:10258000FBDE03D08BC08CF08EDF04010001FAEF7C
:1025900012F01E5201E12FD068522DE068A404D041
:1025A00069A402D000EF0DF06DA201D024D068A282
:1025B00004D069A202D005EF0DF068A004D069A094
:1025C00002D056EF0DF068A804D069A802D06BEFD6
:1025D0000DF068AC04D069AC02D070EF0DF068AAC1
:1025E00004D069AA02D073EF0DF068A604D069A6E2
:1025F00002D06AD76896A19A2CEF0CF0EA6A8A0E8C
:10260000E96EEF500EE00F0E016E006A002EFED74D
:10261000012EFBD78F0E006E002EFED70000EF2E8E
:10262000F2D7000CF86AD09E0D8EEA6AE96AC150B2
:10263000C00B0F09C16E070EB46E1E6A206A040E2D
:10264000216E0C0E226E266A7B6B806B816B826B17
:10265000896B000E926EFF0E936EC150C00B0D0978
:10266000C16EC080C082C084C09EC280C69A010E66
:10267000C66E000EC76ED190800ED56ECD6A000E6C
:102680000609CA6EEF0ECB6EB150480BB16E070E45
:10269000B46E9250270E006E002EFED700D0B450BC
:1026A000A19CB56AF29AF29CF29EF2BEFDD7F29A14
:1026B000F29CF29EF2BEFDD7896A896A81AE15D07E
:1026C00081AC13D081AA11D081B80FD081B60DD0C2
:1026D00081A40BD081A209D081A007D00A0E896EF7
:1026E000876B886B010E896FE9D781AE15D081ACFD
:1026F00013D081AA11D081B80FD081B60DD081B48A
:102700000BD081A209D081A007D00A0E896E876BF9
:10271000886B010E896FE9D781AE15D081AC13D0DB
:1027200081BA11D081B80FD081B60DD081A40BD061
:1027300081A209D081A007D00A0E896E876B886BB1
:10274000010E896FE9D781AE15D081AC13D081BA63
:1027500011D081B80FD081B60DD081B40BD081A239
:1027600009D081A007D00A0E896E876B886B010E95
:10277000896FE9D781AE1DD081AC1BD081AA19D059
:1027800081A817D081B615D081B413D081A211D001
:1027900081A00FD0080E896E010E8A6F2FDF0A0EFE
:1027A000896E040E8A6F2ADF876B886B010E896F32
:1027B000E1D781AE1DD081AC1BD081AA19D081A8F0
:1027C00017D081B615D081B413D081B211D081A0B9
:1027D0000FD0080E896E020E8A6F10DF0A0E896E06
:1027E000030E8A6F0BDF010E876F886B896BE1D751
:1027F00081AE1DD081AC1BD081AA19D081A817D081
:1028000081A615D081B413D081B211D081A00FD090
:10281000080E896E010E8A6FF1DE0A0E896E020EB5
:102820008A6FECDE010E876F886B896BE1D781AE12
:102830001DD081AC1BD081AA19D081A817D081A648
:1028400015D081B413D081B211D081B00FD0080E51
:10285000896E020E8A6FD2DE0A0E896E030E8A6FAF
:10286000CDDE010E876F886B896BE1D781AE1DD0FD
:1028700081AC1BD081AA19D081A817D081A615D010
:1028800081A413D081B211D081B00FD0080E896E0F
:10289000020E8A6FB3DE090E896E010E8A6FAEDEFC
:1028A000010E876F886B896BE1D781AE1DD081AC3B
:1028B0001BD081AA19D081A817D081A615D081A4D8
:1028C00013D081A211D081B00FD0080E896E030EF3
:1028D0008A6F94DE090E896E010E8A6F8FDE010EFB
:1028E000876F886B896BE1D781AE1DD081AC1BD01F
:1028F00081AA19D081A817D081B615D081B413D080
:1029000081B211D081B00FD0080E896E030E8A6F8C
:1029100075DE090E896E010E8A6F70DE010E876FFB
:10292000886B896BE1D781AE1DD081AC1BD081AAA9
:1029300019D081B817D081B615D081B413D081B227
:1029400011D081B00FD0080E896E030E8A6F56DE4B
:10295000090E896E010E8A6F51DE010E876F886B3A
:10296000896BE1D781AE1DD081AC1BD081AA19D073
:1029700081B817D081B615D081B413D081B211D0EF
:1029800081A00FD0080E896E030E8A6F37DE090E04
:10299000896E010E8A6F32DE010E876F886B896B3C
:1029A000E1D781AE1DD081AC1BD081BA19D081B8DE
:1029B00017D081B615D081B413D081B211D081B0B7
:1029C0000FD0080E896E040E8A6F18DE090E896E0C
:1029D000010E8A6F13DE010E876F886B896BE1D75A
:1029E00081AE1DD081BC1BD081BA19D081B817D05F
:1029F00081B615D081B413D081B211D081B00FD07F
:102A0000080E896E040E8A6FF9DD090E896E010EBB
:102A10008A6FF4DD010E876F886B896BE1D781AE19
:102A20001DD081AC1BD081BA19D081B817D081A636
:102A300015D081A413D081A211D081A00FD0020E95
:102A4000896E010E8A6FDADD0A0E896E040E8A6FB6
:102A5000D5DD876B886B010E896FE1D781AE1CD005
:102A600081BC1AD081BA18D081B816D081A614D0F2
:102A700081A412D081A210D081A00ED0020E896E46
:102A80008A6FBCDD0A0E896E030E8A6FB7DD876B15
:102A9000010E886F896BE2D781AE1DD081BC1BD03F
:102AA00081BA19D081A817D081A615D081A413D0DE
:102AB00081A211D081A00FD0020E896E010E8A6F03
:102AC0009DDD0A0E896E020E8A6F98DD876B010EFE
:102AD000886F896BE1D781BE1CD081BC1AD081BAC6
:102AE00018D081A816D081A614D081A412D081A2BA
:102AF00010D081A00ED0020E896E8A6F7FDD0A0E83
:102B0000896E030E8A6F7ADD876B010E886F896B81
:102B1000E2D781BE1CD081BC1AD081AA18D081A86E
:102B200016D081A614D081A412D081A210D081A089
:102B30000ED0020E896E8A6F61DD060E896E010E5F
:102B40008A6F5CDD876B010E886F896BE2D781BE6F
:102B50001DD081AC1BD081AA19D081A817D081A625
:102B600015D081A413D081A211D081A00FD0020E64
:102B7000896E030E8A6F42DD060E896E010E8A6F22
:102B80003DDD876B010E886F896BE1D781BE1DD05B
:102B900081BC1BD081BA19D081B817D081A615D0BD
:102BA00081A413D081A211D081A00FD0020E896E12
:102BB000030E8A6F23DD060E896E010E8A6F1EDDFD
:102BC000876B010E886F896BE1D781BE1DD081BCF8
:102BD0001BD081BA19D081B817D081B615D081A485
:102BE00013D081A211D081A00FD0020E896E030EE6
:102BF0008A6F04DD060E896E010E8A6FFFDC876B1B
:102C0000010E886F896BE1D781AE1DD081BC1BD0CE
:102C100081BA19D081B817D081B615D081A413D04C
:102C200081A211D081A00FD0020E896E030E8A6F8F
:102C3000E5DC060E896E010E8A6FE0DC876B010E03
:102C4000886F896BE1D781BE1DD081BC1BD081BA52
:102C500019D081B817D081B615D081B413D081A214
:102C600011D081A00FD0020E896E040E8A6FC6DCCF
:102C7000060E896E010E8A6FC1DC876B010E886FAC
:102C8000896BE1D781BE1DD081BC1BD081BA19D020
:102C900081B817D081B615D081B413D081B211D0CC
:102CA00081A00FD0020E896E040E8A6FA7DC060E7B
:102CB000896E010E8A6FA2DC876B010E886F896BAB
:102CC000E1D7872D37D081AE35D081AC33D081AA02
:102CD00031D081A82FD081A62DD081A42BD081A264
:102CE00029D081A027D0080E896E010E8A6F86DC5C
:102CF000090E896E020E8A6F81DC81AE0AD081AC2A
:102D000008D081AA06D081A804D081A602D081A4CF
:102D100004D081A202D081B00CD0876B080E896EDE
:102D2000020E8A6F6BDC090E896E020E8A6F66DCFA
:102D3000E4D7C7D7882D36D081AE34D081AC32D01D
:102D400081AA30D081A82ED081A62CD081A42AD0EF
:102D500081A228D081A026D0020E896E010E8A6F32
:102D60004DDC060E896E020E8A6F48DC81AE0ED0F5
:102D700081AC0CD081BA15D081A813D081A611D016
:102D800081A40FD081A20DD081A00BD0886B020E40
:102D9000896E8A6F33DC060E896E020E8A6F2EDC16
:102DA000E5D7C8D7892D82D081AE80D081AC7ED0C6
:102DB00081AA7CD081A87AD081A678D081A476D04F
:102DC00081A274D081A072D00A0E896E81AE11D01A
:102DD00081AC0FD081AA0DD081B80BD081B609D0BB
:102DE00081A407D081A205D081A003D00A0E896EEC
:102DF000EDD781AE11D081AC0FD081AA0DD081B8B2
:102E00000BD081B609D081B407D081A205D081A0B2
:102E100003D00A0E896EEDD781AE11D081AC0FD0F0
:102E200081BA0DD081B80BD081B609D081A407D06A
:102E300081A205D081A003D00A0E896EEDD781AEA4
:102E400019D081AC17D081AA15D081A813D081B632
:102E500011D081B40FD081A00DD0080E896E010E63
:102E60008A6FFEEC12F00A0E896E030E8A6FFEEC7A
:102E700012F0E5D781AE19D081AC17D081BA15D048
:102E800081B813D081A611D081A40FD081A00DD01C
:102E9000020E896E010E8A6FFEEC12F00A0E896E28
:102EA000030E8A6FFEEC12F0E5D77CD706D4030040
:020000040030CA
:0E00000024CC3F0E008385000FC00FE00F40A0
:00000001FF
;PIC18F2550
